{
  "contractName": "Marketplace",
  "abi": [
    {
      "constant": true,
      "inputs": [],
      "name": "name",
      "outputs": [
        {
          "name": "",
          "type": "string"
        }
      ],
      "payable": false,
      "stateMutability": "view",
      "type": "function",
      "signature": "0x06fdde03"
    },
    {
      "constant": true,
      "inputs": [],
      "name": "left",
      "outputs": [
        {
          "name": "",
          "type": "address"
        }
      ],
      "payable": false,
      "stateMutability": "view",
      "type": "function",
      "signature": "0x16e64048"
    },
    {
      "constant": true,
      "inputs": [],
      "name": "right",
      "outputs": [
        {
          "name": "",
          "type": "address"
        }
      ],
      "payable": false,
      "stateMutability": "view",
      "type": "function",
      "signature": "0x1f2a63c0"
    },
    {
      "constant": true,
      "inputs": [
        {
          "name": "",
          "type": "uint256"
        }
      ],
      "name": "products",
      "outputs": [
        {
          "name": "_id",
          "type": "uint256"
        },
        {
          "name": "mfg_owner",
          "type": "address"
        },
        {
          "name": "med_name",
          "type": "string"
        },
        {
          "name": "mfg_month",
          "type": "string"
        },
        {
          "name": "exp_month",
          "type": "string"
        },
        {
          "name": "batch_no",
          "type": "string"
        },
        {
          "name": "mfg_location",
          "type": "string"
        },
        {
          "name": "med_price",
          "type": "uint256"
        },
        {
          "name": "med_amount",
          "type": "uint256"
        },
        {
          "name": "creation_time",
          "type": "uint256"
        }
      ],
      "payable": false,
      "stateMutability": "view",
      "type": "function",
      "signature": "0x7acc0b20"
    },
    {
      "constant": true,
      "inputs": [],
      "name": "vendorCount",
      "outputs": [
        {
          "name": "",
          "type": "uint256"
        }
      ],
      "payable": false,
      "stateMutability": "view",
      "type": "function",
      "signature": "0x8858287b"
    },
    {
      "constant": true,
      "inputs": [],
      "name": "owner",
      "outputs": [
        {
          "name": "",
          "type": "address"
        }
      ],
      "payable": false,
      "stateMutability": "view",
      "type": "function",
      "signature": "0x8da5cb5b"
    },
    {
      "constant": true,
      "inputs": [
        {
          "name": "",
          "type": "uint256"
        }
      ],
      "name": "vendors",
      "outputs": [
        {
          "name": "ven_address",
          "type": "address"
        },
        {
          "name": "location",
          "type": "string"
        },
        {
          "name": "_time",
          "type": "uint256"
        },
        {
          "name": "_id",
          "type": "uint256"
        }
      ],
      "payable": false,
      "stateMutability": "view",
      "type": "function",
      "signature": "0xa08d986d"
    },
    {
      "constant": true,
      "inputs": [],
      "name": "productCount",
      "outputs": [
        {
          "name": "",
          "type": "uint256"
        }
      ],
      "payable": false,
      "stateMutability": "view",
      "type": "function",
      "signature": "0xe0f6ef87"
    },
    {
      "inputs": [],
      "payable": false,
      "stateMutability": "nonpayable",
      "type": "constructor",
      "signature": "constructor"
    },
    {
      "anonymous": false,
      "inputs": [
        {
          "indexed": false,
          "name": "_left",
          "type": "address"
        },
        {
          "indexed": false,
          "name": "_right",
          "type": "address"
        },
        {
          "indexed": false,
          "name": "_loc",
          "type": "string"
        },
        {
          "indexed": false,
          "name": "_time",
          "type": "uint256"
        },
        {
          "indexed": false,
          "name": "_name",
          "type": "string"
        }
      ],
      "name": "doneTransfer",
      "type": "event",
      "signature": "0x55c03e348494b3ab2059501e8b2f560a0ada21cfe820f7dfc502a54d03e90689"
    },
    {
      "anonymous": false,
      "inputs": [
        {
          "indexed": false,
          "name": "id",
          "type": "uint256"
        },
        {
          "indexed": false,
          "name": "mfg_owner",
          "type": "address"
        },
        {
          "indexed": false,
          "name": "med_name",
          "type": "string"
        },
        {
          "indexed": false,
          "name": "mfg_month",
          "type": "string"
        },
        {
          "indexed": false,
          "name": "exp_month",
          "type": "string"
        },
        {
          "indexed": false,
          "name": "batch_no",
          "type": "string"
        },
        {
          "indexed": false,
          "name": "mfg_location",
          "type": "string"
        },
        {
          "indexed": false,
          "name": "med_price",
          "type": "uint256"
        },
        {
          "indexed": false,
          "name": "med_amount",
          "type": "uint256"
        },
        {
          "indexed": false,
          "name": "creation_time",
          "type": "uint256"
        }
      ],
      "name": "medicineCreated",
      "type": "event",
      "signature": "0xf8db8362e6eb97865faba78c7b5fdc0df31f7149799c8eb2e99373a3698a2c52"
    },
    {
      "constant": false,
      "inputs": [
        {
          "name": "_mfg_owner",
          "type": "address"
        },
        {
          "name": "_med_name",
          "type": "string"
        },
        {
          "name": "_mfg_month",
          "type": "string"
        },
        {
          "name": "_exp_month",
          "type": "string"
        },
        {
          "name": "_batch_no",
          "type": "string"
        },
        {
          "name": "_mfg_location",
          "type": "string"
        },
        {
          "name": "_med_price",
          "type": "uint256"
        },
        {
          "name": "_med_amount",
          "type": "uint256"
        }
      ],
      "name": "createMedicine",
      "outputs": [],
      "payable": false,
      "stateMutability": "nonpayable",
      "type": "function",
      "signature": "0x7ff6fa85"
    },
    {
      "constant": false,
      "inputs": [
        {
          "name": "_ven_add",
          "type": "address"
        },
        {
          "name": "_loc",
          "type": "string"
        },
        {
          "name": "_id",
          "type": "uint256"
        }
      ],
      "name": "checkTransaction",
      "outputs": [],
      "payable": false,
      "stateMutability": "nonpayable",
      "type": "function",
      "signature": "0x0bd1282b"
    }
  ],
  "bytecode": "0x6080604052600060045560006005553480156200001b57600080fd5b50336000806101000a81548173ffffffffffffffffffffffffffffffffffffffff021916908373ffffffffffffffffffffffffffffffffffffffff1602179055506000809054906101000a900473ffffffffffffffffffffffffffffffffffffffff16600260006101000a81548173ffffffffffffffffffffffffffffffffffffffff021916908373ffffffffffffffffffffffffffffffffffffffff1602179055506040805190810160405280600681526020017f736861646f770000000000000000000000000000000000000000000000000000815250600190805190602001906200010b92919062000112565b50620001c1565b828054600181600116156101000203166002900490600052602060002090601f016020900481019282601f106200015557805160ff191683800117855562000186565b8280016001018555821562000186579182015b828111156200018557825182559160200191906001019062000168565b5b50905062000195919062000199565b5090565b620001be91905b80821115620001ba576000816000905550600101620001a0565b5090565b90565b61195b80620001d16000396000f3fe6080604052600436106100a4576000357c0100000000000000000000000000000000000000000000000000000000900463ffffffff16806306fdde03146100a95780630bd1282b1461013957806316e640481461022b5780631f2a63c0146102825780637acc0b20146102d95780637ff6fa851461058c5780638858287b146108e55780638da5cb5b14610910578063a08d986d14610967578063e0f6ef8714610a5c575b600080fd5b3480156100b557600080fd5b506100be610a87565b6040518080602001828103825283818151815260200191508051906020019080838360005b838110156100fe5780820151818401526020810190506100e3565b50505050905090810190601f16801561012b5780820380516001836020036101000a031916815260200191505b509250505060405180910390f35b34801561014557600080fd5b506102296004803603606081101561015c57600080fd5b81019080803573ffffffffffffffffffffffffffffffffffffffff1690602001909291908035906020019064010000000081111561019957600080fd5b8201836020820111156101ab57600080fd5b803590602001918460018302840111640100000000831117156101cd57600080fd5b91908080601f016020809104026020016040519081016040528093929190818152602001838380828437600081840152601f19601f82011690508083019250505050505050919291929080359060200190929190505050610b25565b005b34801561023757600080fd5b50610240610f7e565b604051808273ffffffffffffffffffffffffffffffffffffffff1673ffffffffffffffffffffffffffffffffffffffff16815260200191505060405180910390f35b34801561028e57600080fd5b50610297610fa4565b604051808273ffffffffffffffffffffffffffffffffffffffff1673ffffffffffffffffffffffffffffffffffffffff16815260200191505060405180910390f35b3480156102e557600080fd5b50610312600480360360208110156102fc57600080fd5b8101908080359060200190929190505050610fca565b604051808b81526020018a73ffffffffffffffffffffffffffffffffffffffff1673ffffffffffffffffffffffffffffffffffffffff168152602001806020018060200180602001806020018060200189815260200188815260200187815260200186810386528e818151815260200191508051906020019080838360005b838110156103ac578082015181840152602081019050610391565b50505050905090810190601f1680156103d95780820380516001836020036101000a031916815260200191505b5086810385528d818151815260200191508051906020019080838360005b838110156104125780820151818401526020810190506103f7565b50505050905090810190601f16801561043f5780820380516001836020036101000a031916815260200191505b5086810384528c818151815260200191508051906020019080838360005b8381101561047857808201518184015260208101905061045d565b50505050905090810190601f1680156104a55780820380516001836020036101000a031916815260200191505b5086810383528b818151815260200191508051906020019080838360005b838110156104de5780820151818401526020810190506104c3565b50505050905090810190601f16801561050b5780820380516001836020036101000a031916815260200191505b5086810382528a818151815260200191508051906020019080838360005b83811015610544578082015181840152602081019050610529565b50505050905090810190601f1680156105715780820380516001836020036101000a031916815260200191505b509f5050505050505050505050505050505060405180910390f35b34801561059857600080fd5b506108e360048036036101008110156105b057600080fd5b81019080803573ffffffffffffffffffffffffffffffffffffffff169060200190929190803590602001906401000000008111156105ed57600080fd5b8201836020820111156105ff57600080fd5b8035906020019184600183028401116401000000008311171561062157600080fd5b91908080601f016020809104026020016040519081016040528093929190818152602001838380828437600081840152601f19601f8201169050808301925050505050505091929192908035906020019064010000000081111561068457600080fd5b82018360208201111561069657600080fd5b803590602001918460018302840111640100000000831117156106b857600080fd5b91908080601f016020809104026020016040519081016040528093929190818152602001838380828437600081840152601f19601f8201169050808301925050505050505091929192908035906020019064010000000081111561071b57600080fd5b82018360208201111561072d57600080fd5b8035906020019184600183028401116401000000008311171561074f57600080fd5b91908080601f016020809104026020016040519081016040528093929190818152602001838380828437600081840152601f19601f820116905080830192505050505050509192919290803590602001906401000000008111156107b257600080fd5b8201836020820111156107c457600080fd5b803590602001918460018302840111640100000000831117156107e657600080fd5b91908080601f016020809104026020016040519081016040528093929190818152602001838380828437600081840152601f19601f8201169050808301925050505050505091929192908035906020019064010000000081111561084957600080fd5b82018360208201111561085b57600080fd5b8035906020019184600183028401116401000000008311171561087d57600080fd5b91908080601f016020809104026020016040519081016040528093929190818152602001838380828437600081840152601f19601f8201169050808301925050505050505091929192908035906020019092919080359060200190929190505050611336565b005b3480156108f157600080fd5b506108fa611771565b6040518082815260200191505060405180910390f35b34801561091c57600080fd5b50610925611777565b604051808273ffffffffffffffffffffffffffffffffffffffff1673ffffffffffffffffffffffffffffffffffffffff16815260200191505060405180910390f35b34801561097357600080fd5b506109a06004803603602081101561098a57600080fd5b810190808035906020019092919050505061179c565b604051808573ffffffffffffffffffffffffffffffffffffffff1673ffffffffffffffffffffffffffffffffffffffff16815260200180602001848152602001838152602001828103825285818151815260200191508051906020019080838360005b83811015610a1e578082015181840152602081019050610a03565b50505050905090810190601f168015610a4b5780820380516001836020036101000a031916815260200191505b509550505050505060405180910390f35b348015610a6857600080fd5b50610a71611884565b6040518082815260200191505060405180910390f35b60018054600181600116156101000203166002900480601f016020809104026020016040519081016040528092919081815260200182805460018160011615610100020316600290048015610b1d5780601f10610af257610100808354040283529160200191610b1d565b820191906000526020600020905b815481529060010190602001808311610b0057829003601f168201915b505050505081565b82600360006101000a81548173ffffffffffffffffffffffffffffffffffffffff021916908373ffffffffffffffffffffffffffffffffffffffff160217905550600360009054906101000a900473ffffffffffffffffffffffffffffffffffffffff1673ffffffffffffffffffffffffffffffffffffffff166000809054906101000a900473ffffffffffffffffffffffffffffffffffffffff1673ffffffffffffffffffffffffffffffffffffffff1614151515610c4d576040517f08c379a00000000000000000000000000000000000000000000000000000000081526004018080602001828103825260108152602001807f6572726f7220696e20616464726573730000000000000000000000000000000081525060200191505060405180910390fd5b6005600081548092919060010191905055506080604051908101604052808473ffffffffffffffffffffffffffffffffffffffff1681526020018381526020014281526020018281525060076000600554815260200190815260200160002060008201518160000160006101000a81548173ffffffffffffffffffffffffffffffffffffffff021916908373ffffffffffffffffffffffffffffffffffffffff1602179055506020820151816001019080519060200190610d0f92919061188a565b5060408201518160020155606082015181600301559050507f55c03e348494b3ab2059501e8b2f560a0ada21cfe820f7dfc502a54d03e90689600260009054906101000a900473ffffffffffffffffffffffffffffffffffffffff16600360009054906101000a900473ffffffffffffffffffffffffffffffffffffffff16844260066000878152602001908152602001600020600201604051808673ffffffffffffffffffffffffffffffffffffffff1673ffffffffffffffffffffffffffffffffffffffff1681526020018573ffffffffffffffffffffffffffffffffffffffff1673ffffffffffffffffffffffffffffffffffffffff1681526020018060200184815260200180602001838103835286818151815260200191508051906020019080838360005b83811015610e54578082015181840152602081019050610e39565b50505050905090810190601f168015610e815780820380516001836020036101000a031916815260200191505b50838103825284818154600181600116156101000203166002900481526020019150805460018160011615610100020316600290048015610f035780601f10610ed857610100808354040283529160200191610f03565b820191906000526020600020905b815481529060010190602001808311610ee657829003601f168201915b505097505050505050505060405180910390a1600360009054906101000a900473ffffffffffffffffffffffffffffffffffffffff16600260006101000a81548173ffffffffffffffffffffffffffffffffffffffff021916908373ffffffffffffffffffffffffffffffffffffffff160217905550505050565b600260009054906101000a900473ffffffffffffffffffffffffffffffffffffffff1681565b600360009054906101000a900473ffffffffffffffffffffffffffffffffffffffff1681565b60066020528060005260406000206000915090508060000154908060010160009054906101000a900473ffffffffffffffffffffffffffffffffffffffff1690806002018054600181600116156101000203166002900480601f0160208091040260200160405190810160405280929190818152602001828054600181600116156101000203166002900480156110a25780601f10611077576101008083540402835291602001916110a2565b820191906000526020600020905b81548152906001019060200180831161108557829003601f168201915b505050505090806003018054600181600116156101000203166002900480601f0160208091040260200160405190810160405280929190818152602001828054600181600116156101000203166002900480156111405780601f1061111557610100808354040283529160200191611140565b820191906000526020600020905b81548152906001019060200180831161112357829003601f168201915b505050505090806004018054600181600116156101000203166002900480601f0160208091040260200160405190810160405280929190818152602001828054600181600116156101000203166002900480156111de5780601f106111b3576101008083540402835291602001916111de565b820191906000526020600020905b8154815290600101906020018083116111c157829003601f168201915b505050505090806005018054600181600116156101000203166002900480601f01602080910402602001604051908101604052809291908181526020018280546001816001161561010002031660029004801561127c5780601f106112515761010080835404028352916020019161127c565b820191906000526020600020905b81548152906001019060200180831161125f57829003601f168201915b505050505090806006018054600181600116156101000203166002900480601f01602080910402602001604051908101604052809291908181526020018280546001816001161561010002031660029004801561131a5780601f106112ef5761010080835404028352916020019161131a565b820191906000526020600020905b8154815290600101906020018083116112fd57829003601f168201915b505050505090806007015490806008015490806009015490508a565b6004600081548092919060010191905055506101406040519081016040528060045481526020018973ffffffffffffffffffffffffffffffffffffffff168152602001888152602001878152602001868152602001858152602001848152602001838152602001828152602001428152506006600060045481526020019081526020016000206000820151816000015560208201518160010160006101000a81548173ffffffffffffffffffffffffffffffffffffffff021916908373ffffffffffffffffffffffffffffffffffffffff160217905550604082015181600201908051906020019061142992919061188a565b50606082015181600301908051906020019061144692919061188a565b50608082015181600401908051906020019061146392919061188a565b5060a082015181600501908051906020019061148092919061188a565b5060c082015181600601908051906020019061149d92919061188a565b5060e08201518160070155610100820151816008015561012082015181600901559050507ff8db8362e6eb97865faba78c7b5fdc0df31f7149799c8eb2e99373a3698a2c52600454898989898989898942604051808b81526020018a73ffffffffffffffffffffffffffffffffffffffff1673ffffffffffffffffffffffffffffffffffffffff168152602001806020018060200180602001806020018060200189815260200188815260200187815260200186810386528e818151815260200191508051906020019080838360005b8381101561158857808201518184015260208101905061156d565b50505050905090810190601f1680156115b55780820380516001836020036101000a031916815260200191505b5086810385528d818151815260200191508051906020019080838360005b838110156115ee5780820151818401526020810190506115d3565b50505050905090810190601f16801561161b5780820380516001836020036101000a031916815260200191505b5086810384528c818151815260200191508051906020019080838360005b83811015611654578082015181840152602081019050611639565b50505050905090810190601f1680156116815780820380516001836020036101000a031916815260200191505b5086810383528b818151815260200191508051906020019080838360005b838110156116ba57808201518184015260208101905061169f565b50505050905090810190601f1680156116e75780820380516001836020036101000a031916815260200191505b5086810382528a818151815260200191508051906020019080838360005b83811015611720578082015181840152602081019050611705565b50505050905090810190601f16801561174d5780820380516001836020036101000a031916815260200191505b509f5050505050505050505050505050505060405180910390a15050505050505050565b60055481565b6000809054906101000a900473ffffffffffffffffffffffffffffffffffffffff1681565b60076020528060005260406000206000915090508060000160009054906101000a900473ffffffffffffffffffffffffffffffffffffffff1690806001018054600181600116156101000203166002900480601f01602080910402602001604051908101604052809291908181526020018280546001816001161561010002031660029004801561186e5780601f106118435761010080835404028352916020019161186e565b820191906000526020600020905b81548152906001019060200180831161185157829003601f168201915b5050505050908060020154908060030154905084565b60045481565b828054600181600116156101000203166002900490600052602060002090601f016020900481019282601f106118cb57805160ff19168380011785556118f9565b828001600101855582156118f9579182015b828111156118f85782518255916020019190600101906118dd565b5b509050611906919061190a565b5090565b61192c91905b80821115611928576000816000905550600101611910565b5090565b9056fea165627a7a723058208fe9158a2963d4384b9714874d844fd5b2959a5e483a211abdbb3d4a96ac14da0029",
  "source": "pragma solidity ^0.5.0;\n\ncontract Marketplace{\n    \n    address payable public owner;\n    string public name;\n    address payable public left;\n    address payable public right;\n    uint256 public productCount = 0;\n    uint256 public vendorCount = 0;\n    mapping(uint256 => medicine) public products;\n    mapping(uint256 => vendor) public vendors; \n    event doneTransfer(address payable _left, address payable _right, string _loc, uint256 _time, string _name);\n    \n    constructor () public{\n        owner = msg.sender;\n        left = owner;\n        name = \"shadow\";\n    }\n\n    event medicineCreated(\n        uint256 id,\n        address mfg_owner,\n        string med_name,\n        string mfg_month,\n        string exp_month,\n        string batch_no,\n        string mfg_location,\n        uint256 med_price,\n        uint256 med_amount,\n        uint256 creation_time\n    );\n    \n    struct medicine{\n        uint256 _id;\n        address mfg_owner;\n        string med_name;\n        string mfg_month;\n        string exp_month;\n        string batch_no;\n        string mfg_location;\n        uint256 med_price;\n        uint256 med_amount;\n        uint256 creation_time;\n    }\n    \n    struct vendor{\n        address ven_address;\n        string location;\n        uint256 _time;\n        uint256 _id;\n    }\n    \n    function createMedicine(\n        address _mfg_owner,\n        string memory _med_name,\n        string memory _mfg_month,\n        string memory _exp_month,\n        string memory _batch_no,\n        string memory _mfg_location,\n        uint256 _med_price,\n        uint256 _med_amount)\n        public{\n            \n        productCount++;\n        products[productCount] = medicine(productCount, _mfg_owner, _med_name, _mfg_month, _exp_month, _batch_no, _mfg_location, _med_price, _med_amount, block.timestamp);\n\n        emit medicineCreated(productCount, _mfg_owner, _med_name, _mfg_month, _exp_month, _batch_no, _mfg_location, _med_price, _med_amount, block.timestamp);\n        \n    }\n    \n    function checkTransaction(address payable _ven_add, string memory _loc, uint256 _id) public{\n        right = _ven_add;\n        require(owner != right, 'error in address');\n        vendorCount++;\n        vendors[vendorCount] = vendor(_ven_add, _loc, block.timestamp, _id);\n        emit doneTransfer(left, right, _loc, block.timestamp, products[_id].med_name);\n        left = right;\n    }\n}",
  "sourcePath": "C:/Users/ShADow/Downloads/zzz/marketplace-part-3/src/contracts/Marketplace.sol",
  "compiler": {
    "name": "solc",
    "version": "0.5.0+commit.1d4f565a.Emscripten.clang"
  },
  "schemaVersion": "3.0.2",
  "updatedAt": "2020-02-28T10:05:17.437Z",
  "devdoc": {
    "methods": {}
  },
  "userdoc": {
    "methods": {}
  }
}