{
  "contractName": "PharmaCrypt",
  "abi": [
    {
      "constant": true,
      "inputs": [],
      "name": "left",
      "outputs": [
        {
          "name": "",
          "type": "address"
        }
      ],
      "payable": false,
      "stateMutability": "view",
      "type": "function"
    },
    {
      "constant": true,
      "inputs": [],
      "name": "right",
      "outputs": [
        {
          "name": "",
          "type": "address"
        }
      ],
      "payable": false,
      "stateMutability": "view",
      "type": "function"
    },
    {
      "constant": true,
      "inputs": [
        {
          "name": "",
          "type": "uint256"
        }
      ],
      "name": "products",
      "outputs": [
        {
          "name": "_id",
          "type": "uint256"
        },
        {
          "name": "mfg_owner",
          "type": "address"
        },
        {
          "name": "med_name",
          "type": "string"
        },
        {
          "name": "mfg_month",
          "type": "string"
        },
        {
          "name": "exp_month",
          "type": "string"
        },
        {
          "name": "batch_no",
          "type": "string"
        },
        {
          "name": "mfg_location",
          "type": "string"
        },
        {
          "name": "med_price",
          "type": "uint256"
        },
        {
          "name": "med_amount",
          "type": "uint256"
        },
        {
          "name": "creation_time",
          "type": "uint256"
        }
      ],
      "payable": false,
      "stateMutability": "view",
      "type": "function"
    },
    {
      "constant": true,
      "inputs": [],
      "name": "owner",
      "outputs": [
        {
          "name": "",
          "type": "address"
        }
      ],
      "payable": false,
      "stateMutability": "view",
      "type": "function"
    },
    {
      "constant": true,
      "inputs": [
        {
          "name": "",
          "type": "uint256"
        }
      ],
      "name": "vendors",
      "outputs": [
        {
          "name": "ven_address",
          "type": "address"
        },
        {
          "name": "location",
          "type": "string"
        },
        {
          "name": "_time",
          "type": "uint256"
        },
        {
          "name": "_id",
          "type": "uint256"
        }
      ],
      "payable": false,
      "stateMutability": "view",
      "type": "function"
    },
    {
      "inputs": [],
      "payable": false,
      "stateMutability": "nonpayable",
      "type": "constructor"
    },
    {
      "anonymous": false,
      "inputs": [
        {
          "indexed": false,
          "name": "_left",
          "type": "address"
        },
        {
          "indexed": false,
          "name": "_right",
          "type": "address"
        },
        {
          "indexed": false,
          "name": "_loc",
          "type": "string"
        },
        {
          "indexed": false,
          "name": "_time",
          "type": "uint256"
        },
        {
          "indexed": false,
          "name": "_name",
          "type": "string"
        }
      ],
      "name": "doneTransfer",
      "type": "event"
    },
    {
      "constant": false,
      "inputs": [
        {
          "name": "_mfg_owner",
          "type": "address"
        },
        {
          "name": "_med_name",
          "type": "string"
        },
        {
          "name": "_mfg_month",
          "type": "string"
        },
        {
          "name": "_exp_month",
          "type": "string"
        },
        {
          "name": "_batch_no",
          "type": "string"
        },
        {
          "name": "_mfg_location",
          "type": "string"
        },
        {
          "name": "_med_price",
          "type": "uint256"
        },
        {
          "name": "_med_amount",
          "type": "uint256"
        }
      ],
      "name": "createMedicine",
      "outputs": [],
      "payable": false,
      "stateMutability": "nonpayable",
      "type": "function"
    },
    {
      "constant": false,
      "inputs": [
        {
          "name": "_ven_add",
          "type": "address"
        },
        {
          "name": "_loc",
          "type": "string"
        },
        {
          "name": "_id",
          "type": "uint256"
        }
      ],
      "name": "checkTransaction",
      "outputs": [],
      "payable": false,
      "stateMutability": "nonpayable",
      "type": "function"
    }
  ],
  "bytecode": "0x6080604052600060045560006005553480156200001b57600080fd5b50336000806101000a81548173ffffffffffffffffffffffffffffffffffffffff021916908373ffffffffffffffffffffffffffffffffffffffff1602179055506000809054906101000a900473ffffffffffffffffffffffffffffffffffffffff16600260006101000a81548173ffffffffffffffffffffffffffffffffffffffff021916908373ffffffffffffffffffffffffffffffffffffffff1602179055506040805190810160405280600681526020017f736861646f770000000000000000000000000000000000000000000000000000815250600190805190602001906200010b92919062000112565b50620001c1565b828054600181600116156101000203166002900490600052602060002090601f016020900481019282601f106200015557805160ff191683800117855562000186565b8280016001018555821562000186579182015b828111156200018557825182559160200191906001019062000168565b5b50905062000195919062000199565b5090565b620001be91905b80821115620001ba576000816000905550600101620001a0565b5090565b90565b6115c880620001d16000396000f3fe608060405260043610610083576000357c0100000000000000000000000000000000000000000000000000000000900463ffffffff1680630bd1282b1461008857806316e640481461017a5780631f2a63c0146101d15780637acc0b20146102285780637ff6fa85146104db5780638da5cb5b14610834578063a08d986d1461088b575b600080fd5b34801561009457600080fd5b50610178600480360360608110156100ab57600080fd5b81019080803573ffffffffffffffffffffffffffffffffffffffff169060200190929190803590602001906401000000008111156100e857600080fd5b8201836020820111156100fa57600080fd5b8035906020019184600183028401116401000000008311171561011c57600080fd5b91908080601f016020809104026020016040519081016040528093929190818152602001838380828437600081840152601f19601f82011690508083019250505050505050919291929080359060200190929190505050610980565b005b34801561018657600080fd5b5061018f610dd9565b604051808273ffffffffffffffffffffffffffffffffffffffff1673ffffffffffffffffffffffffffffffffffffffff16815260200191505060405180910390f35b3480156101dd57600080fd5b506101e6610dff565b604051808273ffffffffffffffffffffffffffffffffffffffff1673ffffffffffffffffffffffffffffffffffffffff16815260200191505060405180910390f35b34801561023457600080fd5b506102616004803603602081101561024b57600080fd5b8101908080359060200190929190505050610e25565b604051808b81526020018a73ffffffffffffffffffffffffffffffffffffffff1673ffffffffffffffffffffffffffffffffffffffff168152602001806020018060200180602001806020018060200189815260200188815260200187815260200186810386528e818151815260200191508051906020019080838360005b838110156102fb5780820151818401526020810190506102e0565b50505050905090810190601f1680156103285780820380516001836020036101000a031916815260200191505b5086810385528d818151815260200191508051906020019080838360005b83811015610361578082015181840152602081019050610346565b50505050905090810190601f16801561038e5780820380516001836020036101000a031916815260200191505b5086810384528c818151815260200191508051906020019080838360005b838110156103c75780820151818401526020810190506103ac565b50505050905090810190601f1680156103f45780820380516001836020036101000a031916815260200191505b5086810383528b818151815260200191508051906020019080838360005b8381101561042d578082015181840152602081019050610412565b50505050905090810190601f16801561045a5780820380516001836020036101000a031916815260200191505b5086810382528a818151815260200191508051906020019080838360005b83811015610493578082015181840152602081019050610478565b50505050905090810190601f1680156104c05780820380516001836020036101000a031916815260200191505b509f5050505050505050505050505050505060405180910390f35b3480156104e757600080fd5b5061083260048036036101008110156104ff57600080fd5b81019080803573ffffffffffffffffffffffffffffffffffffffff1690602001909291908035906020019064010000000081111561053c57600080fd5b82018360208201111561054e57600080fd5b8035906020019184600183028401116401000000008311171561057057600080fd5b91908080601f016020809104026020016040519081016040528093929190818152602001838380828437600081840152601f19601f820116905080830192505050505050509192919290803590602001906401000000008111156105d357600080fd5b8201836020820111156105e557600080fd5b8035906020019184600183028401116401000000008311171561060757600080fd5b91908080601f016020809104026020016040519081016040528093929190818152602001838380828437600081840152601f19601f8201169050808301925050505050505091929192908035906020019064010000000081111561066a57600080fd5b82018360208201111561067c57600080fd5b8035906020019184600183028401116401000000008311171561069e57600080fd5b91908080601f016020809104026020016040519081016040528093929190818152602001838380828437600081840152601f19601f8201169050808301925050505050505091929192908035906020019064010000000081111561070157600080fd5b82018360208201111561071357600080fd5b8035906020019184600183028401116401000000008311171561073557600080fd5b91908080601f016020809104026020016040519081016040528093929190818152602001838380828437600081840152601f19601f8201169050808301925050505050505091929192908035906020019064010000000081111561079857600080fd5b8201836020820111156107aa57600080fd5b803590602001918460018302840111640100000000831117156107cc57600080fd5b91908080601f016020809104026020016040519081016040528093929190818152602001838380828437600081840152601f19601f8201169050808301925050505050505091929192908035906020019092919080359060200190929190505050611191565b005b34801561084057600080fd5b506108496113ea565b604051808273ffffffffffffffffffffffffffffffffffffffff1673ffffffffffffffffffffffffffffffffffffffff16815260200191505060405180910390f35b34801561089757600080fd5b506108c4600480360360208110156108ae57600080fd5b810190808035906020019092919050505061140f565b604051808573ffffffffffffffffffffffffffffffffffffffff1673ffffffffffffffffffffffffffffffffffffffff16815260200180602001848152602001838152602001828103825285818151815260200191508051906020019080838360005b83811015610942578082015181840152602081019050610927565b50505050905090810190601f16801561096f5780820380516001836020036101000a031916815260200191505b509550505050505060405180910390f35b82600360006101000a81548173ffffffffffffffffffffffffffffffffffffffff021916908373ffffffffffffffffffffffffffffffffffffffff160217905550600360009054906101000a900473ffffffffffffffffffffffffffffffffffffffff1673ffffffffffffffffffffffffffffffffffffffff166000809054906101000a900473ffffffffffffffffffffffffffffffffffffffff1673ffffffffffffffffffffffffffffffffffffffff1614151515610aa8576040517f08c379a00000000000000000000000000000000000000000000000000000000081526004018080602001828103825260108152602001807f6572726f7220696e20616464726573730000000000000000000000000000000081525060200191505060405180910390fd5b6005600081548092919060010191905055506080604051908101604052808473ffffffffffffffffffffffffffffffffffffffff1681526020018381526020014281526020018281525060076000600554815260200190815260200160002060008201518160000160006101000a81548173ffffffffffffffffffffffffffffffffffffffff021916908373ffffffffffffffffffffffffffffffffffffffff1602179055506020820151816001019080519060200190610b6a9291906114f7565b5060408201518160020155606082015181600301559050507f55c03e348494b3ab2059501e8b2f560a0ada21cfe820f7dfc502a54d03e90689600260009054906101000a900473ffffffffffffffffffffffffffffffffffffffff16600360009054906101000a900473ffffffffffffffffffffffffffffffffffffffff16844260066000878152602001908152602001600020600201604051808673ffffffffffffffffffffffffffffffffffffffff1673ffffffffffffffffffffffffffffffffffffffff1681526020018573ffffffffffffffffffffffffffffffffffffffff1673ffffffffffffffffffffffffffffffffffffffff1681526020018060200184815260200180602001838103835286818151815260200191508051906020019080838360005b83811015610caf578082015181840152602081019050610c94565b50505050905090810190601f168015610cdc5780820380516001836020036101000a031916815260200191505b50838103825284818154600181600116156101000203166002900481526020019150805460018160011615610100020316600290048015610d5e5780601f10610d3357610100808354040283529160200191610d5e565b820191906000526020600020905b815481529060010190602001808311610d4157829003601f168201915b505097505050505050505060405180910390a1600360009054906101000a900473ffffffffffffffffffffffffffffffffffffffff16600260006101000a81548173ffffffffffffffffffffffffffffffffffffffff021916908373ffffffffffffffffffffffffffffffffffffffff160217905550505050565b600260009054906101000a900473ffffffffffffffffffffffffffffffffffffffff1681565b600360009054906101000a900473ffffffffffffffffffffffffffffffffffffffff1681565b60066020528060005260406000206000915090508060000154908060010160009054906101000a900473ffffffffffffffffffffffffffffffffffffffff1690806002018054600181600116156101000203166002900480601f016020809104026020016040519081016040528092919081815260200182805460018160011615610100020316600290048015610efd5780601f10610ed257610100808354040283529160200191610efd565b820191906000526020600020905b815481529060010190602001808311610ee057829003601f168201915b505050505090806003018054600181600116156101000203166002900480601f016020809104026020016040519081016040528092919081815260200182805460018160011615610100020316600290048015610f9b5780601f10610f7057610100808354040283529160200191610f9b565b820191906000526020600020905b815481529060010190602001808311610f7e57829003601f168201915b505050505090806004018054600181600116156101000203166002900480601f0160208091040260200160405190810160405280929190818152602001828054600181600116156101000203166002900480156110395780601f1061100e57610100808354040283529160200191611039565b820191906000526020600020905b81548152906001019060200180831161101c57829003601f168201915b505050505090806005018054600181600116156101000203166002900480601f0160208091040260200160405190810160405280929190818152602001828054600181600116156101000203166002900480156110d75780601f106110ac576101008083540402835291602001916110d7565b820191906000526020600020905b8154815290600101906020018083116110ba57829003601f168201915b505050505090806006018054600181600116156101000203166002900480601f0160208091040260200160405190810160405280929190818152602001828054600181600116156101000203166002900480156111755780601f1061114a57610100808354040283529160200191611175565b820191906000526020600020905b81548152906001019060200180831161115857829003601f168201915b505050505090806007015490806008015490806009015490508a565b6000809054906101000a900473ffffffffffffffffffffffffffffffffffffffff1673ffffffffffffffffffffffffffffffffffffffff163373ffffffffffffffffffffffffffffffffffffffff16141515611255576040517f08c379a00000000000000000000000000000000000000000000000000000000081526004018080602001828103825260138152602001807f75736572206e6f7420617574686f72697a65640000000000000000000000000081525060200191505060405180910390fd5b6004600081548092919060010191905055506101406040519081016040528060045481526020018973ffffffffffffffffffffffffffffffffffffffff168152602001888152602001878152602001868152602001858152602001848152602001838152602001828152602001428152506006600060045481526020019081526020016000206000820151816000015560208201518160010160006101000a81548173ffffffffffffffffffffffffffffffffffffffff021916908373ffffffffffffffffffffffffffffffffffffffff16021790555060408201518160020190805190602001906113489291906114f7565b5060608201518160030190805190602001906113659291906114f7565b5060808201518160040190805190602001906113829291906114f7565b5060a082015181600501908051906020019061139f9291906114f7565b5060c08201518160060190805190602001906113bc9291906114f7565b5060e08201518160070155610100820151816008015561012082015181600901559050505050505050505050565b6000809054906101000a900473ffffffffffffffffffffffffffffffffffffffff1681565b60076020528060005260406000206000915090508060000160009054906101000a900473ffffffffffffffffffffffffffffffffffffffff1690806001018054600181600116156101000203166002900480601f0160208091040260200160405190810160405280929190818152602001828054600181600116156101000203166002900480156114e15780601f106114b6576101008083540402835291602001916114e1565b820191906000526020600020905b8154815290600101906020018083116114c457829003601f168201915b5050505050908060020154908060030154905084565b828054600181600116156101000203166002900490600052602060002090601f016020900481019282601f1061153857805160ff1916838001178555611566565b82800160010185558215611566579182015b8281111561156557825182559160200191906001019061154a565b5b5090506115739190611577565b5090565b61159991905b8082111561159557600081600090555060010161157d565b5090565b9056fea165627a7a7230582085b11b5a3d6cd0c31eb2c731909b4dce9024585ad33a28563f094c9de64710530029",
  "source": "pragma solidity ^0.5.0;\n\ncontract PharmaCrypt{\n    \n    address payable public owner;\n    string owner_name;\n    address payable public left;\n    address payable public right;\n    uint256 productCount = 0;\n    uint256 vendorCount = 0;\n    mapping(uint256 => medicine) public products;\n    mapping(uint256 => vendor) public vendors; \n    event doneTransfer(address payable _left, address payable _right, string _loc, uint256 _time, string _name);\n    \n    constructor () public{\n        owner = msg.sender;\n        left = owner;\n        owner_name = \"shadow\";\n    }\n    \n    struct medicine{\n        uint256 _id;\n        address mfg_owner;\n        string med_name;\n        string mfg_month;\n        string exp_month;\n        string batch_no;\n        string mfg_location;\n        uint256 med_price;\n        uint256 med_amount;\n        uint256 creation_time;\n    }\n    \n    struct vendor{\n        address ven_address;\n        string location;\n        uint256 _time;\n        uint256 _id;\n    }\n    \n    function createMedicine(\n        address _mfg_owner,\n        string memory _med_name,\n        string memory _mfg_month,\n        string memory _exp_month,\n        string memory _batch_no,\n        string memory _mfg_location,\n        uint256 _med_price,\n        uint256 _med_amount)\n        public{\n            \n        require(msg.sender == owner, 'user not authorized');\n        productCount++;\n        products[productCount] = medicine(productCount, _mfg_owner, _med_name, _mfg_month, _exp_month, _batch_no, _mfg_location, _med_price, _med_amount, block.timestamp);\n        \n    }\n    \n    function checkTransaction(address payable _ven_add, string memory _loc, uint256 _id) public{\n        right = _ven_add;\n        require(owner != right, 'error in address');\n        vendorCount++;\n        vendors[vendorCount] = vendor(_ven_add, _loc, block.timestamp, _id);\n        emit doneTransfer(left, right, _loc, block.timestamp, products[_id].med_name);\n        left = right;\n    }\n}",
  "sourcePath": "C:/Users/ShADow/Downloads/zzz/marketplace-part-3/src/contracts/Marketplace.sol",
  "compiler": {
    "name": "solc",
    "version": "0.5.0+commit.1d4f565a.Emscripten.clang"
  },
  "schemaVersion": "3.0.2",
  "updatedAt": "2020-02-23T07:50:09.651Z",
  "devdoc": {
    "methods": {}
  },
  "userdoc": {
    "methods": {}
  }
}